{
  "contractName": "Projects",
  "abi": [
    {
      "inputs": [
        {
          "internalType": "string",
          "name": "_projectInfoHash",
          "type": "string"
        },
        {
          "internalType": "uint256",
          "name": "_fundingGoal",
          "type": "uint256"
        },
        {
          "internalType": "uint256",
          "name": "_projectEndTime",
          "type": "uint256"
        }
      ],
      "name": "createProject",
      "outputs": [
        {
          "internalType": "bool",
          "name": "",
          "type": "bool"
        }
      ],
      "stateMutability": "payable",
      "type": "function",
      "payable": true
    },
    {
      "inputs": [],
      "name": "returnProjects",
      "outputs": [
        {
          "components": [
            {
              "internalType": "address payable",
              "name": "creatorAccount",
              "type": "address"
            },
            {
              "internalType": "string",
              "name": "projectInfoHash",
              "type": "string"
            },
            {
              "internalType": "uint256",
              "name": "fundingGoal",
              "type": "uint256"
            },
            {
              "internalType": "uint256",
              "name": "amountRaised",
              "type": "uint256"
            },
            {
              "internalType": "uint256",
              "name": "projectEndTime",
              "type": "uint256"
            },
            {
              "internalType": "bool",
              "name": "projectIsOver",
              "type": "bool"
            }
          ],
          "internalType": "struct Projects.Project[]",
          "name": "",
          "type": "tuple[]"
        }
      ],
      "stateMutability": "view",
      "type": "function",
      "constant": true
    },
    {
      "inputs": [
        {
          "internalType": "uint256",
          "name": "key",
          "type": "uint256"
        }
      ],
      "name": "donateToProject",
      "outputs": [
        {
          "internalType": "bool",
          "name": "",
          "type": "bool"
        }
      ],
      "stateMutability": "payable",
      "type": "function",
      "payable": true
    },
    {
      "inputs": [
        {
          "internalType": "uint256",
          "name": "key",
          "type": "uint256"
        }
      ],
      "name": "projectHasEnded",
      "outputs": [
        {
          "internalType": "bool",
          "name": "",
          "type": "bool"
        }
      ],
      "stateMutability": "view",
      "type": "function",
      "constant": true
    },
    {
      "inputs": [
        {
          "internalType": "uint256",
          "name": "key",
          "type": "uint256"
        }
      ],
      "name": "fundingGoalReached",
      "outputs": [
        {
          "internalType": "bool",
          "name": "",
          "type": "bool"
        }
      ],
      "stateMutability": "view",
      "type": "function",
      "constant": true
    },
    {
      "inputs": [],
      "name": "getContractBalance",
      "outputs": [
        {
          "internalType": "uint256",
          "name": "",
          "type": "uint256"
        }
      ],
      "stateMutability": "view",
      "type": "function",
      "constant": true
    }
  ],
  "bytecode": "0x608060405234801561001057600080fd5b5061117c806100206000396000f3fe6080604052600436106100555760003560e01c806329957db01461005a57806356adb06f146100855780636f9fb98a146100b5578063cfab78b3146100e0578063f3a6ac5f1461011d578063f4067b8c1461014d575b600080fd5b34801561006657600080fd5b5061006f61018a565b60405161007c9190610f5d565b60405180910390f35b61009f600480360361009a9190810190610d5e565b610357565b6040516100ac9190610f7f565b60405180910390f35b3480156100c157600080fd5b506100ca6105d6565b6040516100d79190610fba565b60405180910390f35b3480156100ec57600080fd5b5061010760048036036101029190810190610d5e565b6105de565b6040516101149190610f7f565b60405180910390f35b61013760048036036101329190810190610cf7565b610626565b6040516101449190610f7f565b60405180910390f35b34801561015957600080fd5b50610174600480360361016f9190810190610d5e565b6107b7565b6040516101819190610f7f565b60405180910390f35b6060806000546040519080825280602002602001820160405280156101c957816020015b6101b6610ace565b8152602001906001900390816101ae5790505b50905060008090505b60005481101561034f57600160008281526020019081526020016000206040518060c00160405290816000820160009054906101000a900473ffffffffffffffffffffffffffffffffffffffff1673ffffffffffffffffffffffffffffffffffffffff1673ffffffffffffffffffffffffffffffffffffffff168152602001600182018054600181600116156101000203166002900480601f0160208091040260200160405190810160405280929190818152602001828054600181600116156101000203166002900480156102e95780601f106102be576101008083540402835291602001916102e9565b820191906000526020600020905b8154815290600101906020018083116102cc57829003601f168201915b505050505081526020016002820154815260200160038201548152602001600482015481526020016005820160009054906101000a900460ff16151515158152505082828151811061033757fe5b602002602001018190525080806001019150506101d2565b508091505090565b60006001600083815260200190815260200160002060000160009054906101000a900473ffffffffffffffffffffffffffffffffffffffff1673ffffffffffffffffffffffffffffffffffffffff163373ffffffffffffffffffffffffffffffffffffffff1614156103c857600080fd5b60026000838152602001908152602001600020600101339080600181540180825580915050600190039060005260206000200160009091909190916101000a81548173ffffffffffffffffffffffffffffffffffffffff021916908373ffffffffffffffffffffffffffffffffffffffff1602179055506104a5346002600085815260200190815260200160002060000160003373ffffffffffffffffffffffffffffffffffffffff1673ffffffffffffffffffffffffffffffffffffffff168152602001908152602001600020546107e990919063ffffffff16565b6002600084815260200190815260200160002060000160003373ffffffffffffffffffffffffffffffffffffffff1673ffffffffffffffffffffffffffffffffffffffff168152602001908152602001600020819055506105253460016000858152602001908152602001600020600301546107e990919063ffffffff16565b6001600084815260200190815260200160002060030181905550610548826107b7565b1561058657600180600084815260200190815260200160002060050160006101000a81548160ff0219169083151502179055506105848261083e565b505b61058f826105de565b156105cd57600180600084815260200190815260200160002060050160006101000a81548160ff0219169083151502179055506105cb82610a41565b505b60019050919050565b600047905090565b6000600160008381526020019081526020016000206002015460016000848152602001908152602001600020600301541061061c5760019050610621565b600090505b919050565b60006040518060c001604052803373ffffffffffffffffffffffffffffffffffffffff1681526020018581526020018481526020016000815260200183815260200160001515815250600160008054815260200190815260200160002060008201518160000160006101000a81548173ffffffffffffffffffffffffffffffffffffffff021916908373ffffffffffffffffffffffffffffffffffffffff16021790555060208201518160010190805190602001906106e6929190610b1c565b5060408201518160020155606082015181600301556080820151816004015560a08201518160050160006101000a81548160ff021916908315150217905550905050604051806020016040528060006040519080825280602002602001820160405280156107635781602001602082028038833980820191505090505b5081525060026000805481526020019081526020016000206000820151816001019080519060200190610797929190610b9c565b509050506000808154809291906001019190505550600190509392505050565b6000600160008381526020019081526020016000206004015442106107df57600190506107e4565b600090505b919050565b600080828401905083811015610834576040517f08c379a000000000000000000000000000000000000000000000000000000000815260040161082b90610f9a565b60405180910390fd5b8091505092915050565b600080600090505b6002600084815260200190815260200160002060010180549050811015610a375760026000848152602001908152602001600020600101818154811061088857fe5b9060005260206000200160009054906101000a900473ffffffffffffffffffffffffffffffffffffffff1673ffffffffffffffffffffffffffffffffffffffff166108fc60026000868152602001908152602001600020600001600060026000888152602001908152602001600020600101858154811061090557fe5b9060005260206000200160009054906101000a900473ffffffffffffffffffffffffffffffffffffffff1673ffffffffffffffffffffffffffffffffffffffff1673ffffffffffffffffffffffffffffffffffffffff168152602001908152602001600020549081150290604051600060405180830381858888f193505050505060006002600085815260200190815260200160002060000160006002600087815260200190815260200160002060010184815481106109c157fe5b9060005260206000200160009054906101000a900473ffffffffffffffffffffffffffffffffffffffff1673ffffffffffffffffffffffffffffffffffffffff1673ffffffffffffffffffffffffffffffffffffffff168152602001908152602001600020819055508080600101915050610846565b5060019050919050565b60006001600083815260200190815260200160002060000160009054906101000a900473ffffffffffffffffffffffffffffffffffffffff1673ffffffffffffffffffffffffffffffffffffffff166108fc60016000858152602001908152602001600020600301549081150290604051600060405180830381858888f193505050505060019050919050565b6040518060c00160405280600073ffffffffffffffffffffffffffffffffffffffff168152602001606081526020016000815260200160008152602001600081526020016000151581525090565b828054600181600116156101000203166002900490600052602060002090601f016020900481019282601f10610b5d57805160ff1916838001178555610b8b565b82800160010185558215610b8b579182015b82811115610b8a578251825591602001919060010190610b6f565b5b509050610b989190610c26565b5090565b828054828255906000526020600020908101928215610c15579160200282015b82811115610c145782518260006101000a81548173ffffffffffffffffffffffffffffffffffffffff021916908373ffffffffffffffffffffffffffffffffffffffff16021790555091602001919060010190610bbc565b5b509050610c229190610c4b565b5090565b610c4891905b80821115610c44576000816000905550600101610c2c565b5090565b90565b610c8b91905b80821115610c8757600081816101000a81549073ffffffffffffffffffffffffffffffffffffffff021916905550600101610c51565b5090565b90565b600082601f830112610c9f57600080fd5b8135610cb2610cad82611002565b610fd5565b91508082526020830160208301858383011115610cce57600080fd5b610cd98382846110dc565b50505092915050565b600081359050610cf18161112f565b92915050565b600080600060608486031215610d0c57600080fd5b600084013567ffffffffffffffff811115610d2657600080fd5b610d3286828701610c8e565b9350506020610d4386828701610ce2565b9250506040610d5486828701610ce2565b9150509250925092565b600060208284031215610d7057600080fd5b6000610d7e84828501610ce2565b91505092915050565b6000610d938383610eb6565b905092915050565b610da481611094565b82525050565b6000610db58261103e565b610dbf8185611061565b935083602082028501610dd18561102e565b8060005b85811015610e0d5784840389528151610dee8582610d87565b9450610df983611054565b925060208a01995050600181019050610dd5565b50829750879550505050505092915050565b610e28816110a6565b82525050565b610e37816110a6565b82525050565b6000610e4882611049565b610e528185611072565b9350610e628185602086016110eb565b610e6b8161111e565b840191505092915050565b6000610e83601b83611083565b91507f536166654d6174683a206164646974696f6e206f766572666c6f7700000000006000830152602082019050919050565b600060c083016000830151610ece6000860182610d9b565b5060208301518482036020860152610ee68282610e3d565b9150506040830151610efb6040860182610f3f565b506060830151610f0e6060860182610f3f565b506080830151610f216080860182610f3f565b5060a0830151610f3460a0860182610e1f565b508091505092915050565b610f48816110d2565b82525050565b610f57816110d2565b82525050565b60006020820190508181036000830152610f778184610daa565b905092915050565b6000602082019050610f946000830184610e2e565b92915050565b60006020820190508181036000830152610fb381610e76565b9050919050565b6000602082019050610fcf6000830184610f4e565b92915050565b6000604051905081810181811067ffffffffffffffff82111715610ff857600080fd5b8060405250919050565b600067ffffffffffffffff82111561101957600080fd5b601f19601f8301169050602081019050919050565b6000819050602082019050919050565b600081519050919050565b600081519050919050565b6000602082019050919050565b600082825260208201905092915050565b600082825260208201905092915050565b600082825260208201905092915050565b600061109f826110b2565b9050919050565b60008115159050919050565b600073ffffffffffffffffffffffffffffffffffffffff82169050919050565b6000819050919050565b82818337600083830152505050565b60005b838110156111095780820151818401526020810190506110ee565b83811115611118576000848401525b50505050565b6000601f19601f8301169050919050565b611138816110d2565b811461114357600080fd5b5056fea26469706673582212206beb843966afbe29959f1ce196f5e600668a14a342daaed6ea0dd70577610f2464736f6c63430006000033",
  "source": "// SPDX-License-Identifier: UNLICENSED\npragma solidity >=0.6.0 < 0.8.0;\npragma experimental ABIEncoderV2;\n\n// Importing OpenZeppelin's SafeMath Implementation.\nimport './SafeMath.sol';\n\ncontract Projects{\n\n  using SafeMath for uint256;\n\n  // An iterable structure to keep track of a projects attributes.\n  struct Project {\n    address payable creatorAccount;\n    string projectInfoHash;\n    uint fundingGoal;\n    uint amountRaised;\n    uint projectEndTime;\n    bool projectIsOver;\n  }\n\n  // An iterable structure to keep track of all donations to a project.\n  struct Donations {\n    mapping (address => uint) donationAmounts;\n    address payable [] addressArray;\n  }\n\n  // Number of projects, used as an id number for projects and donations.\n  uint numProjects;\n\n  // Maps an id number to a project.\n  mapping (uint => Project) projects;\n\n  // Maps an id number to a projects donation information.\n  mapping (uint => Donations) allDonations;\n\n  // Creates a new project and stores it's info on the blockchain.\n  function createProject(string memory _projectInfoHash,\n                         uint _fundingGoal,\n                         uint _projectEndTime) public payable returns (bool){\n\n    projects[numProjects] = Project(\n       {\n         creatorAccount: msg.sender,\n         projectInfoHash: _projectInfoHash,\n         fundingGoal: _fundingGoal,\n         amountRaised: 0,\n         projectEndTime: _projectEndTime,\n         projectIsOver: false\n       }\n    );\n\n    allDonations[numProjects] = Donations(\n      {\n          addressArray: new address payable [](0)\n      }\n    );\n\n    numProjects++;\n\n    return true;\n  }\n\n  // Builds and returns an array of all projects.\n  // Used to display projects on the frontend.\n  function returnProjects() public view returns (Project[] memory) {\n\n    Project[] memory projectArray = new Project[](numProjects);\n\n    for (uint i = 0; i < numProjects; i ++) {\n      projectArray[i] = projects[i];\n    }\n\n    return projectArray;\n  }\n\n  /* Donates the message value to the project with the key that is passed. The\n   message senders address and donation amount are recorded. If the projects end\n   date has been reached the payRefunds function is called and the project ends.\n   If the funding goal has been reached the payOut function is called and the\n   project ends. */\n  function donateToProject(uint key) public payable returns (bool){\n    require(msg.sender != projects[key].creatorAccount);\n    allDonations[key].addressArray.push(msg.sender);\n    allDonations[key].donationAmounts[msg.sender] = allDonations[key].donationAmounts[msg.sender].add(msg.value);\n    projects[key].amountRaised = projects[key].amountRaised.add(msg.value);\n    if (projectHasEnded(key)) {\n      projects[key].projectIsOver = true;\n      payRefunds(key);\n    }\n    if (fundingGoalReached(key)) {\n      projects[key].projectIsOver = true;\n      payOut(key);\n    }\n    return true;\n  }\n\n  // Checks is the projects end date has passed.\n  function projectHasEnded(uint key) public view returns (bool) {\n    if (block.timestamp >= projects[key].projectEndTime) {\n      return true;\n    }\n    return false;\n  }\n\n  // Checks if the funding goal has been reached.\n  function fundingGoalReached(uint key) public view returns (bool) {\n    if (projects[key].amountRaised >= projects[key].fundingGoal) {\n      return true;\n    }\n    return false;\n  }\n\n  // Pays out raised funds for a project to the project owner.\n  function payOut(uint key) internal returns (bool) {\n    projects[key].creatorAccount.send(projects[key].amountRaised);\n    return true;\n  }\n\n  // Refunds all donations to a project.\n  function payRefunds(uint key) internal returns (bool) {\n\n    for (uint i = 0; i < allDonations[key].addressArray.length; i ++) {\n      allDonations[key].addressArray[i].send(allDonations[key].donationAmounts[allDonations[key].addressArray[i]]);\n      allDonations[key].donationAmounts[allDonations[key].addressArray[i]] = 0;\n    }\n\n    return true;\n  }\n\n  // Returns all donated funds to active projects.\n  function getContractBalance() public view returns (uint) {\n    return address(this).balance;\n  }\n}\n",
  "sourcePath": "/home/karl/ca400/2021-ca400-whelak26/src/contracts/Projects.sol",
  "compiler": {
    "name": "solc",
    "version": "0.6.0+commit.26b70077.Emscripten.clang"
  },
  "schemaVersion": "3.3.2",
  "updatedAt": "2021-04-20T11:18:11.014Z",
  "networkType": "ethereum",
  "devdoc": {
    "methods": {}
  },
  "userdoc": {
    "methods": {}
  }
}