{
  "contractName": "Projects",
  "abi": [
    {
      "inputs": [
        {
          "internalType": "bytes32",
          "name": "_name",
          "type": "bytes32"
        },
        {
          "internalType": "bytes32",
          "name": "_description",
          "type": "bytes32"
        },
        {
          "internalType": "bytes32",
          "name": "_videoLink",
          "type": "bytes32"
        },
        {
          "internalType": "uint256",
          "name": "_fundingGoal",
          "type": "uint256"
        },
        {
          "internalType": "uint256",
          "name": "_projectEndTime",
          "type": "uint256"
        }
      ],
      "name": "createProject",
      "outputs": [
        {
          "internalType": "bool",
          "name": "",
          "type": "bool"
        }
      ],
      "stateMutability": "payable",
      "type": "function",
      "payable": true
    },
    {
      "inputs": [],
      "name": "returnProjects",
      "outputs": [
        {
          "components": [
            {
              "internalType": "address payable",
              "name": "creatorAccount",
              "type": "address"
            },
            {
              "internalType": "bytes32",
              "name": "name",
              "type": "bytes32"
            },
            {
              "internalType": "bytes32",
              "name": "description",
              "type": "bytes32"
            },
            {
              "internalType": "bytes32",
              "name": "videoLink",
              "type": "bytes32"
            },
            {
              "internalType": "uint256",
              "name": "fundingGoal",
              "type": "uint256"
            },
            {
              "internalType": "uint256",
              "name": "amountRaised",
              "type": "uint256"
            },
            {
              "internalType": "uint256",
              "name": "projectEndTime",
              "type": "uint256"
            },
            {
              "internalType": "bool",
              "name": "projectHasEnded",
              "type": "bool"
            }
          ],
          "internalType": "struct Projects.Project[]",
          "name": "",
          "type": "tuple[]"
        }
      ],
      "stateMutability": "view",
      "type": "function",
      "constant": true
    },
    {
      "inputs": [
        {
          "internalType": "uint256",
          "name": "key",
          "type": "uint256"
        }
      ],
      "name": "donateToProject",
      "outputs": [
        {
          "internalType": "bool",
          "name": "",
          "type": "bool"
        }
      ],
      "stateMutability": "payable",
      "type": "function",
      "payable": true
    },
    {
      "inputs": [
        {
          "internalType": "uint256",
          "name": "key",
          "type": "uint256"
        }
      ],
      "name": "hasProjectEndDateBeenReached",
      "outputs": [
        {
          "internalType": "bool",
          "name": "",
          "type": "bool"
        }
      ],
      "stateMutability": "nonpayable",
      "type": "function"
    },
    {
      "inputs": [
        {
          "internalType": "uint256",
          "name": "key",
          "type": "uint256"
        }
      ],
      "name": "hasFundingGoalBeenReached",
      "outputs": [
        {
          "internalType": "bool",
          "name": "",
          "type": "bool"
        }
      ],
      "stateMutability": "nonpayable",
      "type": "function"
    },
    {
      "inputs": [],
      "name": "getContractBalance",
      "outputs": [
        {
          "internalType": "uint256",
          "name": "",
          "type": "uint256"
        }
      ],
      "stateMutability": "view",
      "type": "function",
      "constant": true
    }
  ],
  "bytecode": "0x608060405234801561001057600080fd5b50610aba806100206000396000f3fe6080604052600436106100555760003560e01c806329957db01461005a57806356adb06f14610085578063680d8ad0146100b55780636f9fb98a146100f2578063a60f048e1461011d578063bdb82ea21461014d575b600080fd5b34801561006657600080fd5b5061006f61018a565b60405161007c9190610942565b60405180910390f35b61009f600480360361009a9190810190610766565b6102d7565b6040516100ac9190610964565b60405180910390f35b3480156100c157600080fd5b506100dc60048036036100d79190810190610766565b6103be565b6040516100e99190610964565b60405180910390f35b3480156100fe57600080fd5b506101076103f3565b604051610114919061099f565b60405180910390f35b610137600480360361013291908101906106ef565b6103fb565b6040516101449190610964565b60405180910390f35b34801561015957600080fd5b50610174600480360361016f9190810190610766565b610529565b6040516101819190610964565b60405180910390f35b6060806000546040519080825280602002602001820160405280156101c957816020015b6101b661065f565b8152602001906001900390816101ae5790505b50905060008090505b6000548110156102cf5760016000600183018152602001908152602001600020604051806101000160405290816000820160009054906101000a900473ffffffffffffffffffffffffffffffffffffffff1673ffffffffffffffffffffffffffffffffffffffff1673ffffffffffffffffffffffffffffffffffffffff1681526020016001820154815260200160028201548152602001600382015481526020016004820154815260200160058201548152602001600682015481526020016007820160009054906101000a900460ff1615151515815250508282815181106102b757fe5b602002602001018190525080806001019150506101d2565b508091505090565b60006102e2826103be565b1561032157600180600060018501815260200190815260200160002060070160006101000a81548160ff021916908315150217905550600090506103b9565b61034d34600160006001860181526020019081526020016000206005015461057790919063ffffffff16565b600160006001850181526020019081526020016000206005018190555061037382610529565b156103b457600180600060018501815260200190815260200160002060070160006101000a81548160ff0219169083151502179055506103b2826105cc565b505b600190505b919050565b6000600160006001840181526020019081526020016000206006015442106103e957600190506103ee565b600090505b919050565b600047905090565b600080600081548092919060010191905055506040518061010001604052803373ffffffffffffffffffffffffffffffffffffffff1681526020018781526020018681526020018581526020018481526020016000815260200183815260200160001515815250600160008054815260200190815260200160002060008201518160000160006101000a81548173ffffffffffffffffffffffffffffffffffffffff021916908373ffffffffffffffffffffffffffffffffffffffff1602179055506020820151816001015560408201518160020155606082015181600301556080820151816004015560a0820151816005015560c0820151816006015560e08201518160070160006101000a81548160ff0219169083151502179055509050506001905095945050505050565b6000600160006001840181526020019081526020016000206004015460016000600185018152602001908152602001600020600501541061056d5760019050610572565b600090505b919050565b6000808284019050838110156105c2576040517f08c379a00000000000000000000000000000000000000000000000000000000081526004016105b99061097f565b60405180910390fd5b8091505092915050565b60006001600060018401815260200190815260200160002060000160009054906101000a900473ffffffffffffffffffffffffffffffffffffffff1673ffffffffffffffffffffffffffffffffffffffff166108fc60016000600186018152602001908152602001600020600501549081150290604051600060405180830381858888f193505050505060019050919050565b604051806101000160405280600073ffffffffffffffffffffffffffffffffffffffff1681526020016000801916815260200160008019168152602001600080191681526020016000815260200160008152602001600081526020016000151581525090565b6000813590506106d481610a56565b92915050565b6000813590506106e981610a6d565b92915050565b600080600080600060a0868803121561070757600080fd5b6000610715888289016106c5565b9550506020610726888289016106c5565b9450506040610737888289016106c5565b9350506060610748888289016106da565b9250506080610759888289016106da565b9150509295509295909350565b60006020828403121561077857600080fd5b6000610786848285016106da565b91505092915050565b600061079b8383610882565b6101008301905092915050565b6107b181610a04565b82525050565b60006107c2826109ca565b6107cc81856109e2565b93506107d7836109ba565b8060005b838110156108085781516107ef888261078f565b97506107fa836109d5565b9250506001810190506107db565b5085935050505092915050565b61081e81610a16565b82525050565b61082d81610a16565b82525050565b61083c81610a22565b82525050565b600061084f601b836109f3565b91507f536166654d6174683a206164646974696f6e206f766572666c6f7700000000006000830152602082019050919050565b6101008201600082015161089960008501826107a8565b5060208201516108ac6020850182610833565b5060408201516108bf6040850182610833565b5060608201516108d26060850182610833565b5060808201516108e56080850182610924565b5060a08201516108f860a0850182610924565b5060c082015161090b60c0850182610924565b5060e082015161091e60e0850182610815565b50505050565b61092d81610a4c565b82525050565b61093c81610a4c565b82525050565b6000602082019050818103600083015261095c81846107b7565b905092915050565b60006020820190506109796000830184610824565b92915050565b6000602082019050818103600083015261099881610842565b9050919050565b60006020820190506109b46000830184610933565b92915050565b6000819050602082019050919050565b600081519050919050565b6000602082019050919050565b600082825260208201905092915050565b600082825260208201905092915050565b6000610a0f82610a2c565b9050919050565b60008115159050919050565b6000819050919050565b600073ffffffffffffffffffffffffffffffffffffffff82169050919050565b6000819050919050565b610a5f81610a22565b8114610a6a57600080fd5b50565b610a7681610a4c565b8114610a8157600080fd5b5056fea2646970667358221220a45de625bfb336fd52295c335cfaf075abf38c59361d4a69536a75fea7b4e34364736f6c63430006000033",
  "source": "// SPDX-License-Identifier: UNLICENSED\npragma solidity >=0.6.0 < 0.8.0;\npragma experimental ABIEncoderV2;\n\n// Importing OpenZeppelin's SafeMath Implementation\nimport './SafeMath.sol';\n\ncontract Projects{\n\n  using SafeMath for uint256;\n  // Defines a refrence type to define a project\n  struct Project {\n    address payable creatorAccount;\n    bytes32 name;\n    bytes32 description;\n    bytes32 videoLink;\n    uint fundingGoal;\n    uint amountRaised;\n    uint projectEndTime;\n    bool projectHasEnded;\n  }\n\n  // number of projectsTabl\n  // used as an donate_index\n  uint numProjects;\n\n  // maps an id number to a project\n  mapping (uint => Project) projects;\n\n  // Set to true at the end, by default initialised to false\n  // bool[] ended;\n\n  // contructor code is only run when the contract is created\n  function createProject(bytes32 _name,\n                         bytes32 _description,\n                         bytes32 _videoLink,\n                         uint _fundingGoal,\n                         uint _projectEndTime) public payable returns (bool){\n\n    numProjects++;\n    projects[numProjects] = Project(\n       {\n         creatorAccount: msg.sender,\n         name: _name,\n         description: _description,\n         videoLink: _videoLink,\n         fundingGoal: _fundingGoal,\n         amountRaised: 0,\n         projectEndTime: _projectEndTime,\n         projectHasEnded: false\n       }\n    );\n    return true;\n  }\n\n  function returnProjects() public view returns (Project[] memory) {\n\n    Project[] memory projectArray = new Project[](numProjects);\n\n    for (uint i = 0; i < numProjects; i ++) {\n      projectArray[i] = projects[i + 1];\n    }\n\n    return projectArray;\n  }\n\n  function donateToProject(uint key) public payable returns (bool){\n    if (hasProjectEndDateBeenReached(key)) {\n      projects[key + 1].projectHasEnded = true;\n      return false;\n    }\n    projects[key + 1].amountRaised = projects[key + 1].amountRaised.add(msg.value);\n    if (hasFundingGoalBeenReached(key)) {\n      projects[key + 1].projectHasEnded = true;\n      payOutToProjectCreator(key);\n    }\n    return true;\n  }\n\n  function hasProjectEndDateBeenReached(uint key) public returns (bool) {\n    if (block.timestamp >= projects[key + 1].projectEndTime) {\n      return true;\n    }\n    return false;\n  }\n\n  function hasFundingGoalBeenReached(uint key) public returns (bool) {\n    if (projects[key + 1].amountRaised >= projects[key + 1].fundingGoal) {\n      return true;\n    }\n    return false;\n  }\n\n  function payOutToProjectCreator(uint key) internal returns (bool) {\n    projects[key + 1].creatorAccount.send(projects[key + 1].amountRaised);\n    return true;\n  }\n\n  function getContractBalance() public view returns (uint) {\n    return address(this).balance;\n  }\n\n//  function goalMeet(uint i) view public returns (bool) {\n//    if (amountsRaised[i] >= fundingGoals[i]) {\n//      return true;\n//    }\n//    return false;\n//  }\n}\n",
  "sourcePath": "/home/karl/ca400/2021-ca400-whelak26/src/contracts/Projects.sol",
  "compiler": {
    "name": "solc",
    "version": "0.6.0+commit.26b70077.Emscripten.clang"
  },
  "schemaVersion": "3.3.2",
  "updatedAt": "2021-03-04T14:11:00.666Z",
  "networkType": "ethereum",
  "devdoc": {
    "methods": {}
  },
  "userdoc": {
    "methods": {}
  }
}