{
  "contractName": "Projects",
  "abi": [
    {
      "inputs": [
        {
          "internalType": "bytes32",
          "name": "_name",
          "type": "bytes32"
        },
        {
          "internalType": "bytes32",
          "name": "_description",
          "type": "bytes32"
        },
        {
          "internalType": "bytes32",
          "name": "_videoLink",
          "type": "bytes32"
        },
        {
          "internalType": "uint256",
          "name": "_fundingGoal",
          "type": "uint256"
        },
        {
          "internalType": "uint256",
          "name": "_projectEndTime",
          "type": "uint256"
        }
      ],
      "name": "createProject",
      "outputs": [
        {
          "internalType": "bool",
          "name": "",
          "type": "bool"
        }
      ],
      "stateMutability": "payable",
      "type": "function",
      "payable": true
    },
    {
      "inputs": [],
      "name": "returnProjects",
      "outputs": [
        {
          "components": [
            {
              "internalType": "address payable",
              "name": "creatorAccount",
              "type": "address"
            },
            {
              "internalType": "bytes32",
              "name": "name",
              "type": "bytes32"
            },
            {
              "internalType": "bytes32",
              "name": "description",
              "type": "bytes32"
            },
            {
              "internalType": "bytes32",
              "name": "videoLink",
              "type": "bytes32"
            },
            {
              "internalType": "uint256",
              "name": "fundingGoal",
              "type": "uint256"
            },
            {
              "internalType": "uint256",
              "name": "amountRaised",
              "type": "uint256"
            },
            {
              "internalType": "uint256",
              "name": "projectEndTime",
              "type": "uint256"
            },
            {
              "internalType": "bool",
              "name": "projectHasEnded",
              "type": "bool"
            }
          ],
          "internalType": "struct Projects.Project[]",
          "name": "",
          "type": "tuple[]"
        }
      ],
      "stateMutability": "view",
      "type": "function",
      "constant": true
    },
    {
      "inputs": [
        {
          "internalType": "uint256",
          "name": "key",
          "type": "uint256"
        }
      ],
      "name": "donateToProject",
      "outputs": [
        {
          "internalType": "bool",
          "name": "",
          "type": "bool"
        }
      ],
      "stateMutability": "payable",
      "type": "function",
      "payable": true
    },
    {
      "inputs": [
        {
          "internalType": "uint256",
          "name": "key",
          "type": "uint256"
        }
      ],
      "name": "hasProjectEndDateBeenReached",
      "outputs": [
        {
          "internalType": "bool",
          "name": "",
          "type": "bool"
        }
      ],
      "stateMutability": "view",
      "type": "function",
      "constant": true
    },
    {
      "inputs": [
        {
          "internalType": "uint256",
          "name": "key",
          "type": "uint256"
        }
      ],
      "name": "hasFundingGoalBeenReached",
      "outputs": [
        {
          "internalType": "bool",
          "name": "",
          "type": "bool"
        }
      ],
      "stateMutability": "view",
      "type": "function",
      "constant": true
    },
    {
      "inputs": [
        {
          "internalType": "uint256",
          "name": "key",
          "type": "uint256"
        },
        {
          "internalType": "address payable",
          "name": "pledgerAddress",
          "type": "address"
        }
      ],
      "name": "payRefundToPledgerAccount",
      "outputs": [
        {
          "internalType": "uint256",
          "name": "",
          "type": "uint256"
        }
      ],
      "stateMutability": "nonpayable",
      "type": "function"
    },
    {
      "inputs": [],
      "name": "getContractBalance",
      "outputs": [
        {
          "internalType": "uint256",
          "name": "",
          "type": "uint256"
        }
      ],
      "stateMutability": "view",
      "type": "function",
      "constant": true
    },
    {
      "inputs": [
        {
          "internalType": "uint256",
          "name": "key",
          "type": "uint256"
        }
      ],
      "name": "testDonationAddressRecording",
      "outputs": [
        {
          "internalType": "address[]",
          "name": "",
          "type": "address[]"
        }
      ],
      "stateMutability": "view",
      "type": "function",
      "constant": true
    },
    {
      "inputs": [
        {
          "internalType": "uint256",
          "name": "key",
          "type": "uint256"
        }
      ],
      "name": "testDonationAmountRecording",
      "outputs": [
        {
          "internalType": "uint256[]",
          "name": "",
          "type": "uint256[]"
        }
      ],
      "stateMutability": "view",
      "type": "function",
      "constant": true
    }
  ],
  "bytecode": "0x608060405234801561001057600080fd5b506114c7806100206000396000f3fe6080604052600436106100865760003560e01c80636ab3e015116100595780636ab3e015146101605780636f9fb98a1461019d5780637f1c9557146101c8578063a60f048e14610205578063bdb82ea21461023557610086565b80630f92c6e11461008b57806329957db0146100c857806356adb06f146100f3578063680d8ad014610123575b600080fd5b34801561009757600080fd5b506100b260048036036100ad9190810190610f5d565b610272565b6040516100bf91906112b4565b60405180910390f35b3480156100d457600080fd5b506100dd6103b5565b6040516100ea9190611292565b60405180910390f35b61010d60048036036101089190810190610f5d565b6104ff565b60405161011a91906112d6565b60405180910390f35b34801561012f57600080fd5b5061014a60048036036101459190810190610f5d565b61077d565b60405161015791906112d6565b60405180910390f35b34801561016c57600080fd5b5061018760048036036101829190810190610f86565b6107af565b6040516101949190611311565b60405180910390f35b3480156101a957600080fd5b506101b261080d565b6040516101bf9190611311565b60405180910390f35b3480156101d457600080fd5b506101ef60048036036101ea9190810190610f5d565b610815565b6040516101fc9190611270565b60405180910390f35b61021f600480360361021a9190810190610ee6565b610933565b60405161022c91906112d6565b60405180910390f35b34801561024157600080fd5b5061025c60048036036102579190810190610f5d565b610ad4565b60405161026991906112d6565b60405180910390f35b60608060026000848152602001908152602001600020600101805490506040519080825280602002602001820160405280156102bd5781602001602082028038833980820191505090505b50905060008090505b60026000858152602001908152602001600020600101805490508110156103ab5760026000858152602001908152602001600020600001600060026000878152602001908152602001600020600101838154811061032057fe5b9060005260206000200160009054906101000a900473ffffffffffffffffffffffffffffffffffffffff1673ffffffffffffffffffffffffffffffffffffffff1673ffffffffffffffffffffffffffffffffffffffff1681526020019081526020016000205482828151811061039257fe5b60200260200101818152505080806001019150506102c6565b5080915050919050565b6060806000546040519080825280602002602001820160405280156103f457816020015b6103e1610d74565b8152602001906001900390816103d95790505b50905060008090505b6000548110156104f75760016000828152602001908152602001600020604051806101000160405290816000820160009054906101000a900473ffffffffffffffffffffffffffffffffffffffff1673ffffffffffffffffffffffffffffffffffffffff1673ffffffffffffffffffffffffffffffffffffffff1681526020016001820154815260200160028201548152602001600382015481526020016004820154815260200160058201548152602001600682015481526020016007820160009054906101000a900460ff1615151515815250508282815181106104df57fe5b602002602001018190525080806001019150506103fd565b508091505090565b60006001600083815260200190815260200160002060000160009054906101000a900473ffffffffffffffffffffffffffffffffffffffff1673ffffffffffffffffffffffffffffffffffffffff163373ffffffffffffffffffffffffffffffffffffffff16141561057057600080fd5b60026000838152602001908152602001600020600101339080600181540180825580915050600190039060005260206000200160009091909190916101000a81548173ffffffffffffffffffffffffffffffffffffffff021916908373ffffffffffffffffffffffffffffffffffffffff16021790555061064d346002600085815260200190815260200160002060000160003373ffffffffffffffffffffffffffffffffffffffff1673ffffffffffffffffffffffffffffffffffffffff16815260200190815260200160002054610b1c90919063ffffffff16565b6002600084815260200190815260200160002060000160003373ffffffffffffffffffffffffffffffffffffffff1673ffffffffffffffffffffffffffffffffffffffff168152602001908152602001600020819055506106cd346001600085815260200190815260200160002060050154610b1c90919063ffffffff16565b60016000848152602001908152602001600020600501819055506106f08261077d565b1561072c57600180600084815260200190815260200160002060070160006101000a81548160ff02191690831515021790555060009050610778565b61073582610ad4565b1561077357600180600084815260200190815260200160002060070160006101000a81548160ff02191690831515021790555061077182610b71565b505b600190505b919050565b6000600160008381526020019081526020016000206006015442106107a557600190506107aa565b600090505b919050565b60006002600084815260200190815260200160002060000160008373ffffffffffffffffffffffffffffffffffffffff1673ffffffffffffffffffffffffffffffffffffffff16815260200190815260200160002054905092915050565b600047905090565b60608060026000848152602001908152602001600020600101805490506040519080825280602002602001820160405280156108605781602001602082028038833980820191505090505b50905060008090505b6002600085815260200190815260200160002060010180549050811015610929576002600085815260200190815260200160002060010181815481106108ab57fe5b9060005260206000200160009054906101000a900473ffffffffffffffffffffffffffffffffffffffff168282815181106108e257fe5b602002602001019073ffffffffffffffffffffffffffffffffffffffff16908173ffffffffffffffffffffffffffffffffffffffff16815250508080600101915050610869565b5080915050919050565b60006040518061010001604052803373ffffffffffffffffffffffffffffffffffffffff1681526020018781526020018681526020018581526020018481526020016000815260200183815260200160001515815250600160008054815260200190815260200160002060008201518160000160006101000a81548173ffffffffffffffffffffffffffffffffffffffff021916908373ffffffffffffffffffffffffffffffffffffffff1602179055506020820151816001015560408201518160020155606082015181600301556080820151816004015560a0820151816005015560c0820151816006015560e08201518160070160006101000a81548160ff02191690831515021790555090505060405180602001604052806000604051908082528060200260200182016040528015610a7e5781602001602082028038833980820191505090505b5081525060026000805481526020019081526020016000206000820151816001019080519060200190610ab2929190610dda565b5090505060008081548092919060010191905055506001905095945050505050565b60006001600083815260200190815260200160002060040154600160008481526020019081526020016000206005015410610b125760019050610b17565b600090505b919050565b600080828401905083811015610b67576040517f08c379a0000000000000000000000000000000000000000000000000000000008152600401610b5e906112f1565b60405180910390fd5b8091505092915050565b600080600090505b6002600084815260200190815260200160002060010180549050811015610d6a57600260008481526020019081526020016000206001018181548110610bbb57fe5b9060005260206000200160009054906101000a900473ffffffffffffffffffffffffffffffffffffffff1673ffffffffffffffffffffffffffffffffffffffff166108fc600260008681526020019081526020016000206000016000600260008881526020019081526020016000206001018581548110610c3857fe5b9060005260206000200160009054906101000a900473ffffffffffffffffffffffffffffffffffffffff1673ffffffffffffffffffffffffffffffffffffffff1673ffffffffffffffffffffffffffffffffffffffff168152602001908152602001600020549081150290604051600060405180830381858888f19350505050506000600260008581526020019081526020016000206000016000600260008781526020019081526020016000206001018481548110610cf457fe5b9060005260206000200160009054906101000a900473ffffffffffffffffffffffffffffffffffffffff1673ffffffffffffffffffffffffffffffffffffffff1673ffffffffffffffffffffffffffffffffffffffff168152602001908152602001600020819055508080600101915050610b79565b5060019050919050565b604051806101000160405280600073ffffffffffffffffffffffffffffffffffffffff1681526020016000801916815260200160008019168152602001600080191681526020016000815260200160008152602001600081526020016000151581525090565b828054828255906000526020600020908101928215610e53579160200282015b82811115610e525782518260006101000a81548173ffffffffffffffffffffffffffffffffffffffff021916908373ffffffffffffffffffffffffffffffffffffffff16021790555091602001919060010190610dfa565b5b509050610e609190610e64565b5090565b610ea491905b80821115610ea057600081816101000a81549073ffffffffffffffffffffffffffffffffffffffff021916905550600101610e6a565b5090565b90565b600081359050610eb68161144c565b92915050565b600081359050610ecb81611463565b92915050565b600081359050610ee08161147a565b92915050565b600080600080600060a08688031215610efe57600080fd5b6000610f0c88828901610ebc565b9550506020610f1d88828901610ebc565b9450506040610f2e88828901610ebc565b9350506060610f3f88828901610ed1565b9250506080610f5088828901610ed1565b9150509295509295909350565b600060208284031215610f6f57600080fd5b6000610f7d84828501610ed1565b91505092915050565b60008060408385031215610f9957600080fd5b6000610fa785828601610ed1565b9250506020610fb885828601610ea7565b9150509250929050565b6000610fce838361101a565b60208301905092915050565b6000610fe683836111b0565b6101008301905092915050565b6000610fff8383611252565b60208301905092915050565b611014816113fa565b82525050565b611023816113e8565b82525050565b60006110348261135c565b61103e81856113a4565b93506110498361132c565b8060005b8381101561107a5781516110618882610fc2565b975061106c8361137d565b92505060018101905061104d565b5085935050505092915050565b600061109282611367565b61109c81856113b5565b93506110a78361133c565b8060005b838110156110d85781516110bf8882610fda565b97506110ca8361138a565b9250506001810190506110ab565b5085935050505092915050565b60006110f082611372565b6110fa81856113c6565b93506111058361134c565b8060005b8381101561113657815161111d8882610ff3565b975061112883611397565b925050600181019050611109565b5085935050505092915050565b61114c8161140c565b82525050565b61115b8161140c565b82525050565b61116a81611418565b82525050565b600061117d601b836113d7565b91507f536166654d6174683a206164646974696f6e206f766572666c6f7700000000006000830152602082019050919050565b610100820160008201516111c7600085018261100b565b5060208201516111da6020850182611161565b5060408201516111ed6040850182611161565b5060608201516112006060850182611161565b5060808201516112136080850182611252565b5060a082015161122660a0850182611252565b5060c082015161123960c0850182611252565b5060e082015161124c60e0850182611143565b50505050565b61125b81611442565b82525050565b61126a81611442565b82525050565b6000602082019050818103600083015261128a8184611029565b905092915050565b600060208201905081810360008301526112ac8184611087565b905092915050565b600060208201905081810360008301526112ce81846110e5565b905092915050565b60006020820190506112eb6000830184611152565b92915050565b6000602082019050818103600083015261130a81611170565b9050919050565b60006020820190506113266000830184611261565b92915050565b6000819050602082019050919050565b6000819050602082019050919050565b6000819050602082019050919050565b600081519050919050565b600081519050919050565b600081519050919050565b6000602082019050919050565b6000602082019050919050565b6000602082019050919050565b600082825260208201905092915050565b600082825260208201905092915050565b600082825260208201905092915050565b600082825260208201905092915050565b60006113f382611422565b9050919050565b600061140582611422565b9050919050565b60008115159050919050565b6000819050919050565b600073ffffffffffffffffffffffffffffffffffffffff82169050919050565b6000819050919050565b611455816113fa565b811461146057600080fd5b50565b61146c81611418565b811461147757600080fd5b50565b61148381611442565b811461148e57600080fd5b5056fea2646970667358221220c85a654008dc4c9235802c91a7798045e62f8c372c2000efcd258b7277603f7464736f6c63430006000033",
  "source": "// SPDX-License-Identifier: UNLICENSED\npragma solidity >=0.6.0 < 0.8.0;\npragma experimental ABIEncoderV2;\n\n// Importing OpenZeppelin's SafeMath Implementation\nimport './SafeMath.sol';\n\ncontract Projects{\n\n  using SafeMath for uint256;\n\n  // An iterable structure to keep track of a projects attributes\n  struct Project {\n    address payable creatorAccount;\n    bytes32 name;\n    bytes32 description;\n    bytes32 videoLink;\n    uint fundingGoal;\n    uint amountRaised;\n    uint projectEndTime;\n    bool projectHasEnded;\n  }\n\n  // An iterable structure to keep track of all donations to a project\n  struct Donations {\n    mapping (address => uint) donationAmounts;\n    address payable [] addressArray;\n  }\n\n  // number of projects\n  // used as an donate_index\n  uint numProjects;\n\n  // maps an id number to a project\n  mapping (uint => Project) projects;\n\n  //maps an id number to a projects donation information\n  mapping (uint => Donations) allDonations;\n\n  // Set to true at the end, by default initialised to false\n  // bool[] ended;\n\n  // contructor code is only run when the contract is created\n  function createProject(bytes32 _name,\n                         bytes32 _description,\n                         bytes32 _videoLink,\n                         uint _fundingGoal,\n                         uint _projectEndTime) public payable returns (bool){\n\n    projects[numProjects] = Project(\n       {\n         creatorAccount: msg.sender,\n         name: _name,\n         description: _description,\n         videoLink: _videoLink,\n         fundingGoal: _fundingGoal,\n         amountRaised: 0,\n         projectEndTime: _projectEndTime,\n         projectHasEnded: false\n       }\n    );\n\n    allDonations[numProjects] = Donations(\n      {\n          addressArray: new address payable [](0)\n      }\n    );\n\n    numProjects++;\n\n    return true;\n  }\n\n  function returnProjects() public view returns (Project[] memory) {\n\n    Project[] memory projectArray = new Project[](numProjects);\n\n    for (uint i = 0; i < numProjects; i ++) {\n      projectArray[i] = projects[i];\n    }\n\n    return projectArray;\n  }\n\n  function donateToProject(uint key) public payable returns (bool){\n    require(msg.sender != projects[key].creatorAccount);\n    allDonations[key].addressArray.push(msg.sender);\n    allDonations[key].donationAmounts[msg.sender] = allDonations[key].donationAmounts[msg.sender].add(msg.value);\n    projects[key].amountRaised = projects[key].amountRaised.add(msg.value);\n    if (hasProjectEndDateBeenReached(key)) {\n      projects[key].projectHasEnded = true;\n      return false;\n    }\n    if (hasFundingGoalBeenReached(key)) {\n      projects[key].projectHasEnded = true;\n      payBackToPledgers(key);\n    }\n    return true;\n  }\n\n  function hasProjectEndDateBeenReached(uint key) public view returns (bool) {\n    if (block.timestamp >= projects[key].projectEndTime) {\n      return true;\n    }\n    return false;\n  }\n\n  function hasFundingGoalBeenReached(uint key) public view returns (bool) {\n    if (projects[key].amountRaised >= projects[key].fundingGoal) {\n      return true;\n    }\n    return false;\n  }\n\n  function payOutToProjectCreator(uint key) internal returns (bool) {\n    projects[key].creatorAccount.send(projects[key].amountRaised);\n    return true;\n  }\n\n  function payBackToPledgers(uint key) internal returns (bool) {\n\n    for (uint i = 0; i < allDonations[key].addressArray.length; i ++) {\n      allDonations[key].addressArray[i].send(allDonations[key].donationAmounts[allDonations[key].addressArray[i]]);\n      allDonations[key].donationAmounts[allDonations[key].addressArray[i]] = 0;\n    }\n\n    return true;\n  }\n\n  function payRefundToPledgerAccount(uint key, address payable pledgerAddress) public returns (uint) {\n    // pledgerAddress.send(allDonations[key + 1].donationAmounts[pledgerAddress]);\n    // allDonations[key + 1].donationAmounts[pledgerAddress] = 0;\n    return allDonations[key].donationAmounts[pledgerAddress];\n  }\n\n  function getContractBalance() public view returns (uint) {\n    return address(this).balance;\n  }\n\n  function testDonationAddressRecording(uint key) public view returns (address[] memory) {\n\n    address[] memory addressArray = new address[](allDonations[key].addressArray.length);\n\n    for (uint i = 0; i < allDonations[key].addressArray.length; i ++) {\n      addressArray[i] = allDonations[key].addressArray[i];\n    }\n\n    return addressArray;\n  }\n\n  function testDonationAmountRecording(uint key) public view returns (uint[] memory) {\n\n    uint[] memory amountArray = new uint[](allDonations[key].addressArray.length);\n\n    for (uint i = 0; i < allDonations[key].addressArray.length; i ++) {\n      amountArray[i] = allDonations[key].donationAmounts[allDonations[key].addressArray[i]];\n    }\n\n    return amountArray;\n  }\n\n//  function goalMeet(uint i) view public returns (bool) {\n//    if (amountsRaised[i] >= fundingGoals[i]) {\n//      return true;\n//    }\n//    return false;\n//  }\n}\n",
  "sourcePath": "/home/karl/ca400/2021-ca400-whelak26/src/contracts/Projects.sol",
  "compiler": {
    "name": "solc",
    "version": "0.6.0+commit.26b70077.Emscripten.clang"
  },
  "schemaVersion": "3.3.2",
  "updatedAt": "2021-03-23T20:53:51.441Z",
  "networkType": "ethereum",
  "devdoc": {
    "methods": {}
  },
  "userdoc": {
    "methods": {}
  }
}