{
  "contractName": "Projects",
  "abi": [
    {
      "constant": false,
      "inputs": [
        {
          "internalType": "bytes32",
          "name": "_name",
          "type": "bytes32"
        },
        {
          "internalType": "bytes32",
          "name": "_description",
          "type": "bytes32"
        },
        {
          "internalType": "bytes32",
          "name": "_videoLink",
          "type": "bytes32"
        },
        {
          "internalType": "uint256",
          "name": "_fundingGoal",
          "type": "uint256"
        },
        {
          "internalType": "uint256",
          "name": "_projectEndTime",
          "type": "uint256"
        }
      ],
      "name": "createProject",
      "outputs": [
        {
          "internalType": "bool",
          "name": "",
          "type": "bool"
        }
      ],
      "payable": false,
      "stateMutability": "nonpayable",
      "type": "function"
    },
    {
      "constant": true,
      "inputs": [],
      "name": "returnProjects",
      "outputs": [
        {
          "components": [
            {
              "internalType": "bytes32",
              "name": "name",
              "type": "bytes32"
            },
            {
              "internalType": "bytes32",
              "name": "description",
              "type": "bytes32"
            },
            {
              "internalType": "bytes32",
              "name": "videoLink",
              "type": "bytes32"
            },
            {
              "internalType": "uint256",
              "name": "fundingGoal",
              "type": "uint256"
            },
            {
              "internalType": "uint256",
              "name": "amountRaised",
              "type": "uint256"
            },
            {
              "internalType": "uint256",
              "name": "projectEndTime",
              "type": "uint256"
            }
          ],
          "internalType": "struct Projects.Project[]",
          "name": "",
          "type": "tuple[]"
        }
      ],
      "payable": false,
      "stateMutability": "view",
      "type": "function"
    },
    {
      "constant": false,
      "inputs": [
        {
          "internalType": "uint256",
          "name": "x",
          "type": "uint256"
        },
        {
          "internalType": "uint256",
          "name": "i",
          "type": "uint256"
        }
      ],
      "name": "donateToProject",
      "outputs": [
        {
          "internalType": "bool",
          "name": "",
          "type": "bool"
        }
      ],
      "payable": false,
      "stateMutability": "nonpayable",
      "type": "function"
    }
  ],
  "bytecode": "0x608060405234801561001057600080fd5b50610681806100206000396000f3fe608060405234801561001057600080fd5b50600436106100415760003560e01c806329957db014610046578063a5d9a58414610064578063a60f048e14610094575b600080fd5b61004e6100c4565b60405161005b9190610549565b60405180910390f35b61007e600480360361007991908101906103af565b61019f565b60405161008b919061056b565b60405180910390f35b6100ae60048036036100a99190810190610338565b61022e565b6040516100bb919061056b565b60405180910390f35b60608060005460405190808252806020026020018201604052801561010357816020015b6100f06102cf565b8152602001906001900390816100e85790505b50905060008090505b60005481101561019757600160006001830181526020019081526020016000206040518060c0016040529081600082015481526020016001820154815260200160028201548152602001600382015481526020016004820154815260200160058201548152505082828151811061017f57fe5b6020026020010181905250808060010191505061010c565b508091505090565b600060016000600184018152602001908152602001600020600501544211156101fd576040517f08c379a00000000000000000000000000000000000000000000000000000000081526004016101f490610586565b60405180910390fd5b8260016000600185018152602001908152602001600020600401600082825401925050819055506001905092915050565b600080600081548092919060010191905055506040518060c0016040528087815260200186815260200185815260200184815260200160008152602001838152506001600080548152602001908152602001600020600082015181600001556020820151816001015560408201518160020155606082015181600301556080820151816004015560a082015181600501559050506001905095945050505050565b6040518060c001604052806000801916815260200160008019168152602001600080191681526020016000815260200160008152602001600081525090565b60008135905061031d81610610565b92915050565b60008135905061033281610627565b92915050565b600080600080600060a0868803121561035057600080fd5b600061035e8882890161030e565b955050602061036f8882890161030e565b94505060406103808882890161030e565b935050606061039188828901610323565b92505060806103a288828901610323565b9150509295509295909350565b600080604083850312156103c257600080fd5b60006103d085828601610323565b92505060206103e185828601610323565b9150509250929050565b60006103f783836104bf565b60c08301905092915050565b600061040e826105b6565b61041881856105ce565b9350610423836105a6565b8060005b8381101561045457815161043b88826103eb565b9750610446836105c1565b925050600181019050610427565b5085935050505092915050565b61046a816105f0565b82525050565b610479816105fc565b82525050565b600061048c6011836105df565b91507f50726f6a6563742068617320656e6465640000000000000000000000000000006000830152602082019050919050565b60c0820160008201516104d56000850182610470565b5060208201516104e86020850182610470565b5060408201516104fb6040850182610470565b50606082015161050e606085018261053a565b506080820151610521608085018261053a565b5060a082015161053460a085018261053a565b50505050565b61054381610606565b82525050565b600060208201905081810360008301526105638184610403565b905092915050565b60006020820190506105806000830184610461565b92915050565b6000602082019050818103600083015261059f8161047f565b9050919050565b6000819050602082019050919050565b600081519050919050565b6000602082019050919050565b600082825260208201905092915050565b600082825260208201905092915050565b60008115159050919050565b6000819050919050565b6000819050919050565b610619816105fc565b811461062457600080fd5b50565b61063081610606565b811461063b57600080fd5b5056fea365627a7a723158204bce0885a6e93af6e76e71764911ae36d3a8030bbd18331dbc84b8bfd4b4c07d6c6578706572696d656e74616cf564736f6c63430005100040",
  "source": "// SPDX-License-Identifier: UNLICENSED\npragma solidity >=0.4.16 < 0.8.0;\npragma experimental ABIEncoderV2;\n\ncontract Projects{\n\n  // Defines a refrence type to define a project\n  struct Project {\n    bytes32 name;\n    bytes32 description;\n    bytes32 videoLink;\n    uint fundingGoal;\n    uint amountRaised;\n    uint projectEndTime;\n  }\n\n  // number of projectsTabl\n  // used as an donate_index\n  uint numProjects;\n\n  // maps an id number to a project\n  mapping (uint => Project) projects;\n\n  // Set to true at the end, by default initialised to false\n  // bool[] ended;\n\n  // contructor code is only run when the contract is created\n  function createProject(bytes32 _name,\n                         bytes32 _description,\n                         bytes32 _videoLink,\n                         uint _fundingGoal,\n                         uint _projectEndTime) public returns (bool){\n\n    numProjects++;\n    projects[numProjects] = Project(\n       {\n         name: _name,\n         description: _description,\n         videoLink: _videoLink,\n         fundingGoal: _fundingGoal,\n         amountRaised: 0,\n         projectEndTime: _projectEndTime\n       }\n    );\n    return true;\n  }\n\n  function returnProjects() public view returns (Project[] memory) {\n\n    Project[] memory projectArray = new Project[](numProjects);\n\n    for (uint i = 0; i < numProjects; i ++) {\n      projectArray[i] = projects[i + 1];\n    }\n\n    return projectArray;\n  }\n\n  function donateToProject(uint x, uint i) public returns (bool){\n    require(block.timestamp <= projects[i + 1].projectEndTime, \"Project has ended\");\n    projects[i + 1].amountRaised += x;\n    return true;\n  }\n\n//  function goalMeet(uint i) view public returns (bool) {\n//    if (amountsRaised[i] >= fundingGoals[i]) {\n//      return true;\n//    }\n//    return false;\n//  }\n}\n",
  "sourcePath": "/home/karl/ca400/2021-ca400-whelak26/src/contracts/Projects.sol",
  "compiler": {
    "name": "solc",
    "version": "0.5.16+commit.9c3226ce.Emscripten.clang"
  },
  "schemaVersion": "3.3.2",
  "updatedAt": "2021-01-18T11:13:53.515Z",
  "networkType": "ethereum",
  "devdoc": {
    "methods": {}
  },
  "userdoc": {
    "methods": {}
  }
}