{
  "contractName": "Projects",
  "abi": [
    {
      "inputs": [
        {
          "internalType": "bytes32",
          "name": "_name",
          "type": "bytes32"
        },
        {
          "internalType": "bytes32",
          "name": "_description",
          "type": "bytes32"
        },
        {
          "internalType": "bytes32",
          "name": "_videoLink",
          "type": "bytes32"
        },
        {
          "internalType": "uint256",
          "name": "_fundingGoal",
          "type": "uint256"
        },
        {
          "internalType": "uint256",
          "name": "_projectEndTime",
          "type": "uint256"
        }
      ],
      "name": "createProject",
      "outputs": [
        {
          "internalType": "bool",
          "name": "",
          "type": "bool"
        }
      ],
      "stateMutability": "payable",
      "type": "function",
      "payable": true
    },
    {
      "inputs": [],
      "name": "returnProjects",
      "outputs": [
        {
          "components": [
            {
              "internalType": "address payable",
              "name": "creatorAccount",
              "type": "address"
            },
            {
              "internalType": "bytes32",
              "name": "name",
              "type": "bytes32"
            },
            {
              "internalType": "bytes32",
              "name": "description",
              "type": "bytes32"
            },
            {
              "internalType": "bytes32",
              "name": "videoLink",
              "type": "bytes32"
            },
            {
              "internalType": "uint256",
              "name": "fundingGoal",
              "type": "uint256"
            },
            {
              "internalType": "uint256",
              "name": "amountRaised",
              "type": "uint256"
            },
            {
              "internalType": "uint256",
              "name": "projectEndTime",
              "type": "uint256"
            },
            {
              "internalType": "bool",
              "name": "projectIsOver",
              "type": "bool"
            }
          ],
          "internalType": "struct Projects.Project[]",
          "name": "",
          "type": "tuple[]"
        }
      ],
      "stateMutability": "view",
      "type": "function",
      "constant": true
    },
    {
      "inputs": [
        {
          "internalType": "uint256",
          "name": "key",
          "type": "uint256"
        }
      ],
      "name": "donateToProject",
      "outputs": [
        {
          "internalType": "bool",
          "name": "",
          "type": "bool"
        }
      ],
      "stateMutability": "payable",
      "type": "function",
      "payable": true
    },
    {
      "inputs": [
        {
          "internalType": "uint256",
          "name": "key",
          "type": "uint256"
        }
      ],
      "name": "projectHasEnded",
      "outputs": [
        {
          "internalType": "bool",
          "name": "",
          "type": "bool"
        }
      ],
      "stateMutability": "view",
      "type": "function",
      "constant": true
    },
    {
      "inputs": [
        {
          "internalType": "uint256",
          "name": "key",
          "type": "uint256"
        }
      ],
      "name": "fundingGoalReached",
      "outputs": [
        {
          "internalType": "bool",
          "name": "",
          "type": "bool"
        }
      ],
      "stateMutability": "view",
      "type": "function",
      "constant": true
    },
    {
      "inputs": [],
      "name": "getContractBalance",
      "outputs": [
        {
          "internalType": "uint256",
          "name": "",
          "type": "uint256"
        }
      ],
      "stateMutability": "view",
      "type": "function",
      "constant": true
    }
  ],
  "bytecode": "0x608060405234801561001057600080fd5b50610f83806100206000396000f3fe6080604052600436106100555760003560e01c806329957db01461005a57806356adb06f146100855780636f9fb98a146100b5578063a60f048e146100e0578063cfab78b314610110578063f4067b8c1461014d575b600080fd5b34801561006657600080fd5b5061006f61018a565b60405161007c9190610e0b565b60405180910390f35b61009f600480360361009a9190810190610c2f565b6102d4565b6040516100ac9190610e2d565b60405180910390f35b3480156100c157600080fd5b506100ca610553565b6040516100d79190610e68565b60405180910390f35b6100fa60048036036100f59190810190610bb8565b61055b565b6040516101079190610e2d565b60405180910390f35b34801561011c57600080fd5b5061013760048036036101329190810190610c2f565b6106fc565b6040516101449190610e2d565b60405180910390f35b34801561015957600080fd5b50610174600480360361016f9190810190610c2f565b610744565b6040516101819190610e2d565b60405180910390f35b6060806000546040519080825280602002602001820160405280156101c957816020015b6101b6610a5b565b8152602001906001900390816101ae5790505b50905060008090505b6000548110156102cc5760016000828152602001908152602001600020604051806101000160405290816000820160009054906101000a900473ffffffffffffffffffffffffffffffffffffffff1673ffffffffffffffffffffffffffffffffffffffff1673ffffffffffffffffffffffffffffffffffffffff1681526020016001820154815260200160028201548152602001600382015481526020016004820154815260200160058201548152602001600682015481526020016007820160009054906101000a900460ff1615151515815250508282815181106102b457fe5b602002602001018190525080806001019150506101d2565b508091505090565b60006001600083815260200190815260200160002060000160009054906101000a900473ffffffffffffffffffffffffffffffffffffffff1673ffffffffffffffffffffffffffffffffffffffff163373ffffffffffffffffffffffffffffffffffffffff16141561034557600080fd5b60026000838152602001908152602001600020600101339080600181540180825580915050600190039060005260206000200160009091909190916101000a81548173ffffffffffffffffffffffffffffffffffffffff021916908373ffffffffffffffffffffffffffffffffffffffff160217905550610422346002600085815260200190815260200160002060000160003373ffffffffffffffffffffffffffffffffffffffff1673ffffffffffffffffffffffffffffffffffffffff1681526020019081526020016000205461077690919063ffffffff16565b6002600084815260200190815260200160002060000160003373ffffffffffffffffffffffffffffffffffffffff1673ffffffffffffffffffffffffffffffffffffffff168152602001908152602001600020819055506104a234600160008581526020019081526020016000206005015461077690919063ffffffff16565b60016000848152602001908152602001600020600501819055506104c582610744565b1561050357600180600084815260200190815260200160002060070160006101000a81548160ff021916908315150217905550610501826107cb565b505b61050c826106fc565b1561054a57600180600084815260200190815260200160002060070160006101000a81548160ff021916908315150217905550610548826109ce565b505b60019050919050565b600047905090565b60006040518061010001604052803373ffffffffffffffffffffffffffffffffffffffff1681526020018781526020018681526020018581526020018481526020016000815260200183815260200160001515815250600160008054815260200190815260200160002060008201518160000160006101000a81548173ffffffffffffffffffffffffffffffffffffffff021916908373ffffffffffffffffffffffffffffffffffffffff1602179055506020820151816001015560408201518160020155606082015181600301556080820151816004015560a0820151816005015560c0820151816006015560e08201518160070160006101000a81548160ff021916908315150217905550905050604051806020016040528060006040519080825280602002602001820160405280156106a65781602001602082028038833980820191505090505b50815250600260008054815260200190815260200160002060008201518160010190805190602001906106da929190610ac1565b5090505060008081548092919060010191905055506001905095945050505050565b6000600160008381526020019081526020016000206004015460016000848152602001908152602001600020600501541061073a576001905061073f565b600090505b919050565b60006001600083815260200190815260200160002060060154421061076c5760019050610771565b600090505b919050565b6000808284019050838110156107c1576040517f08c379a00000000000000000000000000000000000000000000000000000000081526004016107b890610e48565b60405180910390fd5b8091505092915050565b600080600090505b60026000848152602001908152602001600020600101805490508110156109c45760026000848152602001908152602001600020600101818154811061081557fe5b9060005260206000200160009054906101000a900473ffffffffffffffffffffffffffffffffffffffff1673ffffffffffffffffffffffffffffffffffffffff166108fc60026000868152602001908152602001600020600001600060026000888152602001908152602001600020600101858154811061089257fe5b9060005260206000200160009054906101000a900473ffffffffffffffffffffffffffffffffffffffff1673ffffffffffffffffffffffffffffffffffffffff1673ffffffffffffffffffffffffffffffffffffffff168152602001908152602001600020549081150290604051600060405180830381858888f1935050505050600060026000858152602001908152602001600020600001600060026000878152602001908152602001600020600101848154811061094e57fe5b9060005260206000200160009054906101000a900473ffffffffffffffffffffffffffffffffffffffff1673ffffffffffffffffffffffffffffffffffffffff1673ffffffffffffffffffffffffffffffffffffffff1681526020019081526020016000208190555080806001019150506107d3565b5060019050919050565b60006001600083815260200190815260200160002060000160009054906101000a900473ffffffffffffffffffffffffffffffffffffffff1673ffffffffffffffffffffffffffffffffffffffff166108fc60016000858152602001908152602001600020600501549081150290604051600060405180830381858888f193505050505060019050919050565b604051806101000160405280600073ffffffffffffffffffffffffffffffffffffffff1681526020016000801916815260200160008019168152602001600080191681526020016000815260200160008152602001600081526020016000151581525090565b828054828255906000526020600020908101928215610b3a579160200282015b82811115610b395782518260006101000a81548173ffffffffffffffffffffffffffffffffffffffff021916908373ffffffffffffffffffffffffffffffffffffffff16021790555091602001919060010190610ae1565b5b509050610b479190610b4b565b5090565b610b8b91905b80821115610b8757600081816101000a81549073ffffffffffffffffffffffffffffffffffffffff021916905550600101610b51565b5090565b90565b600081359050610b9d81610f1f565b92915050565b600081359050610bb281610f36565b92915050565b600080600080600060a08688031215610bd057600080fd5b6000610bde88828901610b8e565b9550506020610bef88828901610b8e565b9450506040610c0088828901610b8e565b9350506060610c1188828901610ba3565b9250506080610c2288828901610ba3565b9150509295509295909350565b600060208284031215610c4157600080fd5b6000610c4f84828501610ba3565b91505092915050565b6000610c648383610d4b565b6101008301905092915050565b610c7a81610ecd565b82525050565b6000610c8b82610e93565b610c958185610eab565b9350610ca083610e83565b8060005b83811015610cd1578151610cb88882610c58565b9750610cc383610e9e565b925050600181019050610ca4565b5085935050505092915050565b610ce781610edf565b82525050565b610cf681610edf565b82525050565b610d0581610eeb565b82525050565b6000610d18601b83610ebc565b91507f536166654d6174683a206164646974696f6e206f766572666c6f7700000000006000830152602082019050919050565b61010082016000820151610d626000850182610c71565b506020820151610d756020850182610cfc565b506040820151610d886040850182610cfc565b506060820151610d9b6060850182610cfc565b506080820151610dae6080850182610ded565b5060a0820151610dc160a0850182610ded565b5060c0820151610dd460c0850182610ded565b5060e0820151610de760e0850182610cde565b50505050565b610df681610f15565b82525050565b610e0581610f15565b82525050565b60006020820190508181036000830152610e258184610c80565b905092915050565b6000602082019050610e426000830184610ced565b92915050565b60006020820190508181036000830152610e6181610d0b565b9050919050565b6000602082019050610e7d6000830184610dfc565b92915050565b6000819050602082019050919050565b600081519050919050565b6000602082019050919050565b600082825260208201905092915050565b600082825260208201905092915050565b6000610ed882610ef5565b9050919050565b60008115159050919050565b6000819050919050565b600073ffffffffffffffffffffffffffffffffffffffff82169050919050565b6000819050919050565b610f2881610eeb565b8114610f3357600080fd5b50565b610f3f81610f15565b8114610f4a57600080fd5b5056fea2646970667358221220e9a32f2db0087ad934cf24716788e863db741872809457d45a0af3f690b606f064736f6c63430006000033",
  "source": "// SPDX-License-Identifier: UNLICENSED\npragma solidity >=0.6.0 < 0.8.0;\npragma experimental ABIEncoderV2;\n\n// Importing OpenZeppelin's SafeMath Implementation\nimport './SafeMath.sol';\n\ncontract Projects{\n\n  using SafeMath for uint256;\n\n  // An iterable structure to keep track of a projects attributes\n  struct Project {\n    address payable creatorAccount;\n    bytes32 name;\n    bytes32 description;\n    bytes32 videoLink;\n    uint fundingGoal;\n    uint amountRaised;\n    uint projectEndTime;\n    bool projectIsOver;\n  }\n\n  // An iterable structure to keep track of all donations to a project\n  struct Donations {\n    mapping (address => uint) donationAmounts;\n    address payable [] addressArray;\n  }\n\n  // number of projects\n  // used as an donate_index\n  uint numProjects;\n\n  // maps an id number to a project\n  mapping (uint => Project) projects;\n\n  //maps an id number to a projects donation information\n  mapping (uint => Donations) allDonations;\n\n  // Set to true at the end, by default initialised to false\n  // bool[] ended;\n\n  // contructor code is only run when the contract is created\n  function createProject(bytes32 _name,\n                         bytes32 _description,\n                         bytes32 _videoLink,\n                         uint _fundingGoal,\n                         uint _projectEndTime) public payable returns (bool){\n\n    projects[numProjects] = Project(\n       {\n         creatorAccount: msg.sender,\n         name: _name,\n         description: _description,\n         videoLink: _videoLink,\n         fundingGoal: _fundingGoal,\n         amountRaised: 0,\n         projectEndTime: _projectEndTime,\n         projectIsOver: false\n       }\n    );\n\n    allDonations[numProjects] = Donations(\n      {\n          addressArray: new address payable [](0)\n      }\n    );\n\n    numProjects++;\n\n    return true;\n  }\n\n  function returnProjects() public view returns (Project[] memory) {\n\n    Project[] memory projectArray = new Project[](numProjects);\n\n    for (uint i = 0; i < numProjects; i ++) {\n      projectArray[i] = projects[i];\n    }\n\n    return projectArray;\n  }\n\n  function donateToProject(uint key) public payable returns (bool){\n    require(msg.sender != projects[key].creatorAccount);\n    allDonations[key].addressArray.push(msg.sender);\n    allDonations[key].donationAmounts[msg.sender] = allDonations[key].donationAmounts[msg.sender].add(msg.value);\n    projects[key].amountRaised = projects[key].amountRaised.add(msg.value);\n    if (projectHasEnded(key)) {\n      projects[key].projectIsOver = true;\n      payRefunds(key);\n    }\n    if (fundingGoalReached(key)) {\n      projects[key].projectIsOver = true;\n      payOut(key);\n    }\n    return true;\n  }\n\n  function projectHasEnded(uint key) public view returns (bool) {\n    if (block.timestamp >= projects[key].projectEndTime) {\n      return true;\n    }\n    return false;\n  }\n\n  function fundingGoalReached(uint key) public view returns (bool) {\n    if (projects[key].amountRaised >= projects[key].fundingGoal) {\n      return true;\n    }\n    return false;\n  }\n\n  function payOut(uint key) internal returns (bool) {\n    projects[key].creatorAccount.send(projects[key].amountRaised);\n    return true;\n  }\n\n  function payRefunds(uint key) internal returns (bool) {\n\n    for (uint i = 0; i < allDonations[key].addressArray.length; i ++) {\n      allDonations[key].addressArray[i].send(allDonations[key].donationAmounts[allDonations[key].addressArray[i]]);\n      allDonations[key].donationAmounts[allDonations[key].addressArray[i]] = 0;\n    }\n\n    return true;\n  }\n\n  function getContractBalance() public view returns (uint) {\n    return address(this).balance;\n  }\n}\n",
  "sourcePath": "/home/karl/ca400/2021-ca400-whelak26/src/contracts/Projects.sol",
  "compiler": {
    "name": "solc",
    "version": "0.6.0+commit.26b70077.Emscripten.clang"
  },
  "schemaVersion": "3.3.2",
  "updatedAt": "2021-03-31T15:51:48.449Z",
  "networkType": "ethereum",
  "devdoc": {
    "methods": {}
  },
  "userdoc": {
    "methods": {}
  }
}