{
  "contractName": "Projects",
  "abi": [
    {
      "inputs": [
        {
          "internalType": "bytes32",
          "name": "_name",
          "type": "bytes32"
        },
        {
          "internalType": "bytes32",
          "name": "_description",
          "type": "bytes32"
        },
        {
          "internalType": "bytes32",
          "name": "_videoLink",
          "type": "bytes32"
        },
        {
          "internalType": "uint256",
          "name": "_fundingGoal",
          "type": "uint256"
        },
        {
          "internalType": "uint256",
          "name": "_projectEndTime",
          "type": "uint256"
        }
      ],
      "name": "createProject",
      "outputs": [
        {
          "internalType": "bool",
          "name": "",
          "type": "bool"
        }
      ],
      "stateMutability": "payable",
      "type": "function",
      "payable": true
    },
    {
      "inputs": [],
      "name": "returnProjects",
      "outputs": [
        {
          "components": [
            {
              "internalType": "address",
              "name": "creatorAccount",
              "type": "address"
            },
            {
              "internalType": "bytes32",
              "name": "name",
              "type": "bytes32"
            },
            {
              "internalType": "bytes32",
              "name": "description",
              "type": "bytes32"
            },
            {
              "internalType": "bytes32",
              "name": "videoLink",
              "type": "bytes32"
            },
            {
              "internalType": "uint256",
              "name": "fundingGoal",
              "type": "uint256"
            },
            {
              "internalType": "uint256",
              "name": "amountRaised",
              "type": "uint256"
            },
            {
              "internalType": "uint256",
              "name": "projectEndTime",
              "type": "uint256"
            }
          ],
          "internalType": "struct Projects.Project[]",
          "name": "",
          "type": "tuple[]"
        }
      ],
      "stateMutability": "view",
      "type": "function",
      "constant": true
    },
    {
      "inputs": [
        {
          "internalType": "uint256",
          "name": "key",
          "type": "uint256"
        }
      ],
      "name": "donateToProject",
      "outputs": [
        {
          "internalType": "bool",
          "name": "",
          "type": "bool"
        }
      ],
      "stateMutability": "payable",
      "type": "function",
      "payable": true
    },
    {
      "inputs": [],
      "name": "getContractBalance",
      "outputs": [
        {
          "internalType": "uint256",
          "name": "",
          "type": "uint256"
        }
      ],
      "stateMutability": "view",
      "type": "function",
      "constant": true
    }
  ],
  "bytecode": "0x608060405234801561001057600080fd5b506108c9806100206000396000f3fe60806040526004361061003f5760003560e01c806329957db01461004457806356adb06f1461006f5780636f9fb98a1461009f578063a60f048e146100ca575b600080fd5b34801561005057600080fd5b506100596100fa565b6040516100669190610731565b60405180910390f35b61008960048036036100849190810190610539565b61022b565b6040516100969190610753565b60405180910390f35b3480156100ab57600080fd5b506100b46102db565b6040516100c191906107ae565b60405180910390f35b6100e460048036036100df91908101906104c2565b6102e3565b6040516100f19190610753565b60405180910390f35b60608060005460405190808252806020026020018201604052801561013957816020015b61012661043c565b81526020019060019003908161011e5790505b50905060008090505b60005481101561022357600160006001830181526020019081526020016000206040518060e00160405290816000820160009054906101000a900473ffffffffffffffffffffffffffffffffffffffff1673ffffffffffffffffffffffffffffffffffffffff1673ffffffffffffffffffffffffffffffffffffffff168152602001600182015481526020016002820154815260200160038201548152602001600482015481526020016005820154815260200160068201548152505082828151811061020b57fe5b60200260200101819052508080600101915050610142565b508091505090565b60006001600060018401815260200190815260200160002060060154421115610289576040517f08c379a00000000000000000000000000000000000000000000000000000000081526004016102809061076e565b60405180910390fd5b6102b53460016000600186018152602001908152602001600020600501546103e790919063ffffffff16565b600160006001850181526020019081526020016000206005018190555060019050919050565b600047905090565b600080600081548092919060010191905055506040518060e001604052803373ffffffffffffffffffffffffffffffffffffffff1681526020018781526020018681526020018581526020018481526020016000815260200183815250600160008054815260200190815260200160002060008201518160000160006101000a81548173ffffffffffffffffffffffffffffffffffffffff021916908373ffffffffffffffffffffffffffffffffffffffff1602179055506020820151816001015560408201518160020155606082015181600301556080820151816004015560a0820151816005015560c082015181600601559050506001905095945050505050565b600080828401905083811015610432576040517f08c379a00000000000000000000000000000000000000000000000000000000081526004016104299061078e565b60405180910390fd5b8091505092915050565b6040518060e00160405280600073ffffffffffffffffffffffffffffffffffffffff1681526020016000801916815260200160008019168152602001600080191681526020016000815260200160008152602001600081525090565b6000813590506104a781610865565b92915050565b6000813590506104bc8161087c565b92915050565b600080600080600060a086880312156104da57600080fd5b60006104e888828901610498565b95505060206104f988828901610498565b945050604061050a88828901610498565b935050606061051b888289016104ad565b925050608061052c888289016104ad565b9150509295509295909350565b60006020828403121561054b57600080fd5b6000610559848285016104ad565b91505092915050565b600061056e8383610685565b60e08301905092915050565b61058381610813565b82525050565b6000610594826107d9565b61059e81856107f1565b93506105a9836107c9565b8060005b838110156105da5781516105c18882610562565b97506105cc836107e4565b9250506001810190506105ad565b5085935050505092915050565b6105f081610825565b82525050565b6105ff81610831565b82525050565b6000610612601183610802565b91507f50726f6a6563742068617320656e6465640000000000000000000000000000006000830152602082019050919050565b6000610652601b83610802565b91507f536166654d6174683a206164646974696f6e206f766572666c6f7700000000006000830152602082019050919050565b60e08201600082015161069b600085018261057a565b5060208201516106ae60208501826105f6565b5060408201516106c160408501826105f6565b5060608201516106d460608501826105f6565b5060808201516106e76080850182610713565b5060a08201516106fa60a0850182610713565b5060c082015161070d60c0850182610713565b50505050565b61071c8161085b565b82525050565b61072b8161085b565b82525050565b6000602082019050818103600083015261074b8184610589565b905092915050565b600060208201905061076860008301846105e7565b92915050565b6000602082019050818103600083015261078781610605565b9050919050565b600060208201905081810360008301526107a781610645565b9050919050565b60006020820190506107c36000830184610722565b92915050565b6000819050602082019050919050565b600081519050919050565b6000602082019050919050565b600082825260208201905092915050565b600082825260208201905092915050565b600061081e8261083b565b9050919050565b60008115159050919050565b6000819050919050565b600073ffffffffffffffffffffffffffffffffffffffff82169050919050565b6000819050919050565b61086e81610831565b811461087957600080fd5b50565b6108858161085b565b811461089057600080fd5b5056fea26469706673582212206b3a3a32c19e350bd29de8f8143f4b1118b8751367636f3ee9bf2db9c6aa9cbb64736f6c63430006000033",
  "source": "// SPDX-License-Identifier: UNLICENSED\npragma solidity >=0.6.0 < 0.8.0;\npragma experimental ABIEncoderV2;\n\n// Importing OpenZeppelin's SafeMath Implementation\nimport './SafeMath.sol';\n\ncontract Projects{\n\n  using SafeMath for uint256;\n  // Defines a refrence type to define a project\n  struct Project {\n    address creatorAccount;\n    bytes32 name;\n    bytes32 description;\n    bytes32 videoLink;\n    uint fundingGoal;\n    uint amountRaised;\n    uint projectEndTime;\n  }\n\n  // number of projectsTabl\n  // used as an donate_index\n  uint numProjects;\n\n  // maps an id number to a project\n  mapping (uint => Project) projects;\n\n  // Set to true at the end, by default initialised to false\n  // bool[] ended;\n\n  // contructor code is only run when the contract is created\n  function createProject(bytes32 _name,\n                         bytes32 _description,\n                         bytes32 _videoLink,\n                         uint _fundingGoal,\n                         uint _projectEndTime) public payable returns (bool){\n\n    numProjects++;\n    projects[numProjects] = Project(\n       {\n         creatorAccount: msg.sender,\n         name: _name,\n         description: _description,\n         videoLink: _videoLink,\n         fundingGoal: _fundingGoal,\n         amountRaised: 0,\n         projectEndTime: _projectEndTime\n       }\n    );\n    return true;\n  }\n\n  function returnProjects() public view returns (Project[] memory) {\n\n    Project[] memory projectArray = new Project[](numProjects);\n\n    for (uint i = 0; i < numProjects; i ++) {\n      projectArray[i] = projects[i + 1];\n    }\n\n    return projectArray;\n  }\n\n  function donateToProject(uint key) public payable returns (bool){\n    require(block.timestamp <= projects[key + 1].projectEndTime, \"Project has ended\");\n    projects[key + 1].amountRaised = projects[key + 1].amountRaised.add(msg.value);\n    return true;\n  }\n\n  function getContractBalance() public view returns (uint) {\n    return address(this).balance;\n  }\n\n//  function goalMeet(uint i) view public returns (bool) {\n//    if (amountsRaised[i] >= fundingGoals[i]) {\n//      return true;\n//    }\n//    return false;\n//  }\n}\n",
  "sourcePath": "/home/karl/ca400/2021-ca400-whelak26/src/contracts/Projects.sol",
  "compiler": {
    "name": "solc",
    "version": "0.6.0+commit.26b70077.Emscripten.clang"
  },
  "schemaVersion": "3.3.2",
  "updatedAt": "2021-01-19T17:51:10.192Z",
  "networkType": "ethereum",
  "devdoc": {
    "methods": {}
  },
  "userdoc": {
    "methods": {}
  }
}