{
  "contractName": "Projects",
  "abi": [
    {
      "inputs": [
        {
          "internalType": "bytes32",
          "name": "_name",
          "type": "bytes32"
        },
        {
          "internalType": "bytes32",
          "name": "_description",
          "type": "bytes32"
        },
        {
          "internalType": "bytes32",
          "name": "_videoLink",
          "type": "bytes32"
        },
        {
          "internalType": "uint256",
          "name": "_fundingGoal",
          "type": "uint256"
        },
        {
          "internalType": "uint256",
          "name": "_projectEndTime",
          "type": "uint256"
        }
      ],
      "name": "createProject",
      "outputs": [
        {
          "internalType": "bool",
          "name": "",
          "type": "bool"
        }
      ],
      "stateMutability": "payable",
      "type": "function"
    },
    {
      "inputs": [],
      "name": "returnProjects",
      "outputs": [
        {
          "components": [
            {
              "internalType": "address payable",
              "name": "creatorAccount",
              "type": "address"
            },
            {
              "internalType": "bytes32",
              "name": "name",
              "type": "bytes32"
            },
            {
              "internalType": "bytes32",
              "name": "description",
              "type": "bytes32"
            },
            {
              "internalType": "bytes32",
              "name": "videoLink",
              "type": "bytes32"
            },
            {
              "internalType": "uint256",
              "name": "fundingGoal",
              "type": "uint256"
            },
            {
              "internalType": "uint256",
              "name": "amountRaised",
              "type": "uint256"
            },
            {
              "internalType": "uint256",
              "name": "projectEndTime",
              "type": "uint256"
            },
            {
              "internalType": "bool",
              "name": "projectHasEnded",
              "type": "bool"
            }
          ],
          "internalType": "struct Projects.Project[]",
          "name": "",
          "type": "tuple[]"
        }
      ],
      "stateMutability": "view",
      "type": "function"
    },
    {
      "inputs": [
        {
          "internalType": "uint256",
          "name": "key",
          "type": "uint256"
        }
      ],
      "name": "donateToProject",
      "outputs": [
        {
          "internalType": "bool",
          "name": "",
          "type": "bool"
        }
      ],
      "stateMutability": "payable",
      "type": "function"
    },
    {
      "inputs": [
        {
          "internalType": "uint256",
          "name": "key",
          "type": "uint256"
        }
      ],
      "name": "hasProjectEndDateBeenReached",
      "outputs": [
        {
          "internalType": "bool",
          "name": "",
          "type": "bool"
        }
      ],
      "stateMutability": "view",
      "type": "function"
    },
    {
      "inputs": [
        {
          "internalType": "uint256",
          "name": "key",
          "type": "uint256"
        }
      ],
      "name": "hasFundingGoalBeenReached",
      "outputs": [
        {
          "internalType": "bool",
          "name": "",
          "type": "bool"
        }
      ],
      "stateMutability": "view",
      "type": "function"
    },
    {
      "inputs": [],
      "name": "getContractBalance",
      "outputs": [
        {
          "internalType": "uint256",
          "name": "",
          "type": "uint256"
        }
      ],
      "stateMutability": "view",
      "type": "function"
    },
    {
      "inputs": [
        {
          "internalType": "uint256",
          "name": "key",
          "type": "uint256"
        }
      ],
      "name": "testDonationAddressRecording",
      "outputs": [
        {
          "internalType": "address[]",
          "name": "",
          "type": "address[]"
        }
      ],
      "stateMutability": "view",
      "type": "function"
    },
    {
      "inputs": [
        {
          "internalType": "uint256",
          "name": "key",
          "type": "uint256"
        }
      ],
      "name": "testDonationAmountRecording",
      "outputs": [
        {
          "internalType": "uint256[]",
          "name": "",
          "type": "uint256[]"
        }
      ],
      "stateMutability": "view",
      "type": "function"
    }
  ],
  "bytecode": "0x608060405234801561001057600080fd5b506113ba806100206000396000f3fe60806040526004361061007b5760003560e01c80636f9fb98a1161004e5780636f9fb98a146101555780637f1c955714610180578063a60f048e146101bd578063bdb82ea2146101ed5761007b565b80630f92c6e11461008057806329957db0146100bd57806356adb06f146100e8578063680d8ad014610118575b600080fd5b34801561008c57600080fd5b506100a760048036036100a29190810190610ea3565b61022a565b6040516100b491906111be565b60405180910390f35b3480156100c957600080fd5b506100d261036d565b6040516100df919061119c565b60405180910390f35b61010260048036036100fd9190810190610ea3565b6104b7565b60405161010f91906111e0565b60405180910390f35b34801561012457600080fd5b5061013f600480360361013a9190810190610ea3565b610736565b60405161014c91906111e0565b60405180910390f35b34801561016157600080fd5b5061016a610768565b604051610177919061121b565b60405180910390f35b34801561018c57600080fd5b506101a760048036036101a29190810190610ea3565b610770565b6040516101b4919061117a565b60405180910390f35b6101d760048036036101d29190810190610e2c565b61088e565b6040516101e491906111e0565b60405180910390f35b3480156101f957600080fd5b50610214600480360361020f9190810190610ea3565b610a2f565b60405161022191906111e0565b60405180910390f35b60608060026000848152602001908152602001600020600101805490506040519080825280602002602001820160405280156102755781602001602082028038833980820191505090505b50905060008090505b6002600085815260200190815260200160002060010180549050811015610363576002600085815260200190815260200160002060000160006002600087815260200190815260200160002060010183815481106102d857fe5b9060005260206000200160009054906101000a900473ffffffffffffffffffffffffffffffffffffffff1673ffffffffffffffffffffffffffffffffffffffff1673ffffffffffffffffffffffffffffffffffffffff1681526020019081526020016000205482828151811061034a57fe5b602002602001018181525050808060010191505061027e565b5080915050919050565b6060806000546040519080825280602002602001820160405280156103ac57816020015b610399610ccf565b8152602001906001900390816103915790505b50905060008090505b6000548110156104af5760016000828152602001908152602001600020604051806101000160405290816000820160009054906101000a900473ffffffffffffffffffffffffffffffffffffffff1673ffffffffffffffffffffffffffffffffffffffff1673ffffffffffffffffffffffffffffffffffffffff1681526020016001820154815260200160028201548152602001600382015481526020016004820154815260200160058201548152602001600682015481526020016007820160009054906101000a900460ff16151515158152505082828151811061049757fe5b602002602001018190525080806001019150506103b5565b508091505090565b60006001600083815260200190815260200160002060000160009054906101000a900473ffffffffffffffffffffffffffffffffffffffff1673ffffffffffffffffffffffffffffffffffffffff163373ffffffffffffffffffffffffffffffffffffffff16141561052857600080fd5b60026000838152602001908152602001600020600101339080600181540180825580915050600190039060005260206000200160009091909190916101000a81548173ffffffffffffffffffffffffffffffffffffffff021916908373ffffffffffffffffffffffffffffffffffffffff160217905550610605346002600085815260200190815260200160002060000160003373ffffffffffffffffffffffffffffffffffffffff1673ffffffffffffffffffffffffffffffffffffffff16815260200190815260200160002054610a7790919063ffffffff16565b6002600084815260200190815260200160002060000160003373ffffffffffffffffffffffffffffffffffffffff1673ffffffffffffffffffffffffffffffffffffffff16815260200190815260200160002081905550610685346001600085815260200190815260200160002060050154610a7790919063ffffffff16565b60016000848152602001908152602001600020600501819055506106a882610736565b156106e657600180600084815260200190815260200160002060070160006101000a81548160ff0219169083151502179055506106e482610acc565b505b6106ef82610a2f565b1561072d57600180600084815260200190815260200160002060070160006101000a81548160ff02191690831515021790555061072b82610acc565b505b60019050919050565b60006001600083815260200190815260200160002060060154421061075e5760019050610763565b600090505b919050565b600047905090565b60608060026000848152602001908152602001600020600101805490506040519080825280602002602001820160405280156107bb5781602001602082028038833980820191505090505b50905060008090505b60026000858152602001908152602001600020600101805490508110156108845760026000858152602001908152602001600020600101818154811061080657fe5b9060005260206000200160009054906101000a900473ffffffffffffffffffffffffffffffffffffffff1682828151811061083d57fe5b602002602001019073ffffffffffffffffffffffffffffffffffffffff16908173ffffffffffffffffffffffffffffffffffffffff168152505080806001019150506107c4565b5080915050919050565b60006040518061010001604052803373ffffffffffffffffffffffffffffffffffffffff1681526020018781526020018681526020018581526020018481526020016000815260200183815260200160001515815250600160008054815260200190815260200160002060008201518160000160006101000a81548173ffffffffffffffffffffffffffffffffffffffff021916908373ffffffffffffffffffffffffffffffffffffffff1602179055506020820151816001015560408201518160020155606082015181600301556080820151816004015560a0820151816005015560c0820151816006015560e08201518160070160006101000a81548160ff021916908315150217905550905050604051806020016040528060006040519080825280602002602001820160405280156109d95781602001602082028038833980820191505090505b5081525060026000805481526020019081526020016000206000820151816001019080519060200190610a0d929190610d35565b5090505060008081548092919060010191905055506001905095945050505050565b60006001600083815260200190815260200160002060040154600160008481526020019081526020016000206005015410610a6d5760019050610a72565b600090505b919050565b600080828401905083811015610ac2576040517f08c379a0000000000000000000000000000000000000000000000000000000008152600401610ab9906111fb565b60405180910390fd5b8091505092915050565b600080600090505b6002600084815260200190815260200160002060010180549050811015610cc557600260008481526020019081526020016000206001018181548110610b1657fe5b9060005260206000200160009054906101000a900473ffffffffffffffffffffffffffffffffffffffff1673ffffffffffffffffffffffffffffffffffffffff166108fc600260008681526020019081526020016000206000016000600260008881526020019081526020016000206001018581548110610b9357fe5b9060005260206000200160009054906101000a900473ffffffffffffffffffffffffffffffffffffffff1673ffffffffffffffffffffffffffffffffffffffff1673ffffffffffffffffffffffffffffffffffffffff168152602001908152602001600020549081150290604051600060405180830381858888f19350505050506000600260008581526020019081526020016000206000016000600260008781526020019081526020016000206001018481548110610c4f57fe5b9060005260206000200160009054906101000a900473ffffffffffffffffffffffffffffffffffffffff1673ffffffffffffffffffffffffffffffffffffffff1673ffffffffffffffffffffffffffffffffffffffff168152602001908152602001600020819055508080600101915050610ad4565b5060019050919050565b604051806101000160405280600073ffffffffffffffffffffffffffffffffffffffff1681526020016000801916815260200160008019168152602001600080191681526020016000815260200160008152602001600081526020016000151581525090565b828054828255906000526020600020908101928215610dae579160200282015b82811115610dad5782518260006101000a81548173ffffffffffffffffffffffffffffffffffffffff021916908373ffffffffffffffffffffffffffffffffffffffff16021790555091602001919060010190610d55565b5b509050610dbb9190610dbf565b5090565b610dff91905b80821115610dfb57600081816101000a81549073ffffffffffffffffffffffffffffffffffffffff021916905550600101610dc5565b5090565b90565b600081359050610e1181611356565b92915050565b600081359050610e268161136d565b92915050565b600080600080600060a08688031215610e4457600080fd5b6000610e5288828901610e02565b9550506020610e6388828901610e02565b9450506040610e7488828901610e02565b9350506060610e8588828901610e17565b9250506080610e9688828901610e17565b9150509295509295909350565b600060208284031215610eb557600080fd5b6000610ec384828501610e17565b91505092915050565b6000610ed88383610f24565b60208301905092915050565b6000610ef083836110ba565b6101008301905092915050565b6000610f09838361115c565b60208301905092915050565b610f1e81611304565b82525050565b610f2d816112f2565b82525050565b6000610f3e82611266565b610f4881856112ae565b9350610f5383611236565b8060005b83811015610f84578151610f6b8882610ecc565b9750610f7683611287565b925050600181019050610f57565b5085935050505092915050565b6000610f9c82611271565b610fa681856112bf565b9350610fb183611246565b8060005b83811015610fe2578151610fc98882610ee4565b9750610fd483611294565b925050600181019050610fb5565b5085935050505092915050565b6000610ffa8261127c565b61100481856112d0565b935061100f83611256565b8060005b838110156110405781516110278882610efd565b9750611032836112a1565b925050600181019050611013565b5085935050505092915050565b61105681611316565b82525050565b61106581611316565b82525050565b61107481611322565b82525050565b6000611087601b836112e1565b91507f536166654d6174683a206164646974696f6e206f766572666c6f7700000000006000830152602082019050919050565b610100820160008201516110d16000850182610f15565b5060208201516110e4602085018261106b565b5060408201516110f7604085018261106b565b50606082015161110a606085018261106b565b50608082015161111d608085018261115c565b5060a082015161113060a085018261115c565b5060c082015161114360c085018261115c565b5060e082015161115660e085018261104d565b50505050565b6111658161134c565b82525050565b6111748161134c565b82525050565b600060208201905081810360008301526111948184610f33565b905092915050565b600060208201905081810360008301526111b68184610f91565b905092915050565b600060208201905081810360008301526111d88184610fef565b905092915050565b60006020820190506111f5600083018461105c565b92915050565b600060208201905081810360008301526112148161107a565b9050919050565b6000602082019050611230600083018461116b565b92915050565b6000819050602082019050919050565b6000819050602082019050919050565b6000819050602082019050919050565b600081519050919050565b600081519050919050565b600081519050919050565b6000602082019050919050565b6000602082019050919050565b6000602082019050919050565b600082825260208201905092915050565b600082825260208201905092915050565b600082825260208201905092915050565b600082825260208201905092915050565b60006112fd8261132c565b9050919050565b600061130f8261132c565b9050919050565b60008115159050919050565b6000819050919050565b600073ffffffffffffffffffffffffffffffffffffffff82169050919050565b6000819050919050565b61135f81611322565b811461136a57600080fd5b50565b6113768161134c565b811461138157600080fd5b5056fea26469706673582212201d97ca2f52a94972941f8545298c1a766c30332f03b81b0b87627a329d14739364736f6c63430006000033",
  "source": "// SPDX-License-Identifier: UNLICENSED\npragma solidity >=0.6.0 < 0.8.0;\npragma experimental ABIEncoderV2;\n\n// Importing OpenZeppelin's SafeMath Implementation\nimport './SafeMath.sol';\n\ncontract Projects{\n\n  using SafeMath for uint256;\n\n  // An iterable structure to keep track of a projects attributes\n  struct Project {\n    address payable creatorAccount;\n    bytes32 name;\n    bytes32 description;\n    bytes32 videoLink;\n    uint fundingGoal;\n    uint amountRaised;\n    uint projectEndTime;\n    bool projectHasEnded;\n  }\n\n  // An iterable structure to keep track of all donations to a project\n  struct Donations {\n    mapping (address => uint) donationAmounts;\n    address payable [] addressArray;\n  }\n\n  // number of projects\n  // used as an donate_index\n  uint numProjects;\n\n  // maps an id number to a project\n  mapping (uint => Project) projects;\n\n  //maps an id number to a projects donation information\n  mapping (uint => Donations) allDonations;\n\n  // Set to true at the end, by default initialised to false\n  // bool[] ended;\n\n  // contructor code is only run when the contract is created\n  function createProject(bytes32 _name,\n                         bytes32 _description,\n                         bytes32 _videoLink,\n                         uint _fundingGoal,\n                         uint _projectEndTime) public payable returns (bool){\n\n    projects[numProjects] = Project(\n       {\n         creatorAccount: msg.sender,\n         name: _name,\n         description: _description,\n         videoLink: _videoLink,\n         fundingGoal: _fundingGoal,\n         amountRaised: 0,\n         projectEndTime: _projectEndTime,\n         projectHasEnded: false\n       }\n    );\n\n    allDonations[numProjects] = Donations(\n      {\n          addressArray: new address payable [](0)\n      }\n    );\n\n    numProjects++;\n\n    return true;\n  }\n\n  function returnProjects() public view returns (Project[] memory) {\n\n    Project[] memory projectArray = new Project[](numProjects);\n\n    for (uint i = 0; i < numProjects; i ++) {\n      projectArray[i] = projects[i];\n    }\n\n    return projectArray;\n  }\n\n  function donateToProject(uint key) public payable returns (bool){\n    require(msg.sender != projects[key].creatorAccount);\n    allDonations[key].addressArray.push(msg.sender);\n    allDonations[key].donationAmounts[msg.sender] = allDonations[key].donationAmounts[msg.sender].add(msg.value);\n    projects[key].amountRaised = projects[key].amountRaised.add(msg.value);\n    if (hasProjectEndDateBeenReached(key)) {\n      projects[key].projectHasEnded = true;\n      payBackToPledgers(key);\n    }\n    if (hasFundingGoalBeenReached(key)) {\n      projects[key].projectHasEnded = true;\n      payBackToPledgers(key);\n    }\n    return true;\n  }\n\n  function hasProjectEndDateBeenReached(uint key) public view returns (bool) {\n    if (block.timestamp >= projects[key].projectEndTime) {\n      return true;\n    }\n    return false;\n  }\n\n  function hasFundingGoalBeenReached(uint key) public view returns (bool) {\n    if (projects[key].amountRaised >= projects[key].fundingGoal) {\n      return true;\n    }\n    return false;\n  }\n\n  function payOutToProjectCreator(uint key) internal returns (bool) {\n    projects[key].creatorAccount.send(projects[key].amountRaised);\n    return true;\n  }\n\n  function payBackToPledgers(uint key) internal returns (bool) {\n\n    for (uint i = 0; i < allDonations[key].addressArray.length; i ++) {\n      allDonations[key].addressArray[i].send(allDonations[key].donationAmounts[allDonations[key].addressArray[i]]);\n      allDonations[key].donationAmounts[allDonations[key].addressArray[i]] = 0;\n    }\n\n    return true;\n  }\n\n  function getContractBalance() public view returns (uint) {\n    return address(this).balance;\n  }\n\n  function testDonationAddressRecording(uint key) public view returns (address[] memory) {\n\n    address[] memory addressArray = new address[](allDonations[key].addressArray.length);\n\n    for (uint i = 0; i < allDonations[key].addressArray.length; i ++) {\n      addressArray[i] = allDonations[key].addressArray[i];\n    }\n\n    return addressArray;\n  }\n\n  function testDonationAmountRecording(uint key) public view returns (uint[] memory) {\n\n    uint[] memory amountArray = new uint[](allDonations[key].addressArray.length);\n\n    for (uint i = 0; i < allDonations[key].addressArray.length; i ++) {\n      amountArray[i] = allDonations[key].donationAmounts[allDonations[key].addressArray[i]];\n    }\n\n    return amountArray;\n  }\n\n//  function goalMeet(uint i) view public returns (bool) {\n//    if (amountsRaised[i] >= fundingGoals[i]) {\n//      return true;\n//    }\n//    return false;\n//  }\n}\n",
  "sourcePath": "/home/karl/ca400/2021-ca400-whelak26/src/contracts/Projects.sol",
  "compiler": {
    "name": "solc",
    "version": "0.6.0+commit.26b70077.Emscripten.clang"
  },
  "schemaVersion": "3.3.2",
  "updatedAt": "2021-03-24T14:20:46.739Z",
  "devdoc": {
    "methods": {}
  },
  "userdoc": {
    "methods": {}
  }
}